:020000040800F2
:10000000D806002071100008610200086302000891
:10001000670200086B0200086F0200080000000081
:100020000000000000000000000000007302000853
:10003000750200080000000077020008790200083D
:100040008B1000088B1000088B1000088B10000824
:100050008B1000088B1000088B1000088B10000814
:100060008B1000088B1000088B1000088B10000804
:100070008B1000088B1000088B1000088B100008F4
:100080008B1000088B1000088B1000088B100008E4
:100090008B1000088B1000088B1000088B100008D4
:1000A0008B100008EB0D00088B1000088B10000867
:1000B0008B1000088B1000088B1000088B100008B4
:1000C0008B1000088B1000088B1000088B100008A4
:1000D0008B100008091000088B1000088B10000816
:1000E0008B1000088B1000088B1000088B10000884
:1000F0008B1000088B1000088B1000088B10000874
:100100008B1000088B1000088B1000088B10000863
:100110008B1000088B1000088B1000088B10000853
:100120008B1000088B1000088B1000088B10000843
:1001300000F002F800F03AF80AA090E8000C8244BF
:100140008344AAF10107DA4501D100F02FF8AFF29C
:10015000090EBAE80F0013F0010F18BFFB1A43F0A5
:1001600001031847AC300000CC300000103A24BF27
:1001700078C878C1FAD8520724BF30C830C144BF0C
:1001800004680C607047000000230024002500264E
:10019000103A28BF78C1FBD8520728BF30C148BFEA
:1001A0000B6070471FB51FBD10B510BD02F0F4FF06
:1001B0001146FFF7F7FF00F027F803F012F803B439
:1001C000FFF7F2FF03BC03F017F8000010B500F0D2
:1001D00017FA00F045FB00F0E4FE00F0C3FC00F06D
:1001E00081FD00F0AFFD00F0F3FD10BD70B50546D8
:1001F0000C4635B12078012804D1A8470020207092
:1002000000E070BD00BFFCE7FFF7E0FF19E00D491B
:100210000D48FFF7EBFF0B49C91E0C48FFF7E6FF3F
:100220000849491E0A48FFF7E1FF0649891E0948A7
:10023000FFF7DCFF08490948FFF7D8FF012006490E
:100240000870E4E737000020C70C0008270A000800
:10025000030800086B05000833000020190D000892
:10026000704700BFFEE700BFFEE700BFFEE700BF2C
:10027000FEE7704770477047704700000CB50020DC
:10028000019000906C48006840F480306A49086032
:1002900000BF6948006800F4003000900198401CDD
:1002A0000190009818B90198B0F5A06FF1D162489B
:1002B000006800F4003010B10120009001E000203F
:1002C00000900098012843D15C48006840F010007D
:1002D0005A4908600846006820F003000860084694
:1002E000006840F002000860534840685249486086
:1002F0000846406848600846406840F480604860AE
:100300000846406820F47C1048600846406840F485
:10031000E81048600846006840F08070086000BF40
:100320004548006800F000700028F9D04248406855
:1003300020F00300404948600846406840F0020051
:10034000486000BF3C48406800F00C000828F9D124
:100350000CBD10B5FFF792FF10BD10B53648006810
:1003600040F00100344908600846406834490840BC
:100370003149486008460068324908402E49086003
:100380000846006820F4802008600846406820F491
:10039000FE0048604FF41F008860FFF7DAFF4FF05F
:1003A00000602949086010BD10B50021002000221E
:1003B000214B5B6803F00C0121B1042906D0082908
:1003C00028D107E0214B224C236027E01F4B204C13
:1003D000236023E0184B5B6803F47010164B5B68D6
:1003E00003F48032022303EB904022B9194B4343BC
:1003F000174C23600DE0104B5B6803F4003323B10E
:10040000144B4343124C236003E0104B4343104C06
:10041000236003E00D4B0E4C236000BF00BF064B72
:100420005B68C3F303130C4CE15C094B1B68CB40C6
:10043000074C236010BD0000001002400020024065
:100440000000FFF8FFFFF6FE08ED00E000127A0062
:100450000000002000093D00040000206C48807866
:100460000011012806D0022812D004281FD0082825
:100470003AD12AE00020674908606749C1F8A00125
:1004800064490839086001206349C1F898012CE0EB
:10049000002060490C3908605F49C1F8A4015D493A
:1004A000091F086001205C49C1F89C011DE0002083
:1004B00058490C3908605849C1F89C0155490860F1
:1004C00001205549C1F8A0010FE0002051490C3925
:1004D00008605149C1F89C014E49091F086001207C
:1004E0004D49C1F8A40100E000BF00BF704710B53E
:1004F0004A480078C0F3400045498978B0EB211F95
:1005000004D000F0DBF8C0F3400090B1444800781C
:10051000401CC0B24249087002280EDB3D48001D55
:100520000068C0433C49C1F8A80100203C4908705C
:1005300003E000203749091D086010BD37480078E6
:1005400000F001003249497801F00101884204D1EC
:10055000012030490C31086006E02E480C3000685C
:10056000C0432D49C1F8B001704710B5FFF7E6FF51
:10057000FFF7BDFFFFF772FF10BD08B50121402056
:1005800001F048FB6420ADF8000010208DF8030056
:1005900003208DF802006946224801F07FF86421AB
:1005A000204801F028F908BD08B50121102001F00C
:1005B00031FB4FF4FE50ADF8000010208DF8030021
:1005C00003208DF802006946174801F067F84FF4E0
:1005D0000061154801F00FF94FF4BE51124801F0C7
:1005E0000CF908BD0D48007820F00100401C0B49B3
:1005F00008700846007820F00200801C08707047E0
:1006000010B5FFF7EFFFFFF7CFFFFFF7B6FF10BD05
:100610002F000020A40122420000224214000020EA
:1006200015000020001801400010014002468F48CC
:10063000007820B101280AD002283AD110E0002029
:100640008B4B187012B90120884B187032E01AB920
:100650000220864B187002E00020844B187029E0BD
:10066000012A0BD18248007840B90120804B1870D4
:1006700000207E4B18707F4B188019E07AB97D48B6
:100680000088401C7B4B18801846008888420FDB8E
:100690000220774B18700020764B188008E0012A62
:1006A00006D173480078022802D100206F4B1870E1
:1006B00000E000BF00BF6E480078704710B54FF4EF
:1006C00000516D4801F07DF804464FF47A61FFF760
:1006D000ADFF012806D16948007840F00200674963
:1006E000087011E04FF40051634801F06AF80446C5
:1006F0004FF47A61FFF79AFF022805D15F4800782E
:1007000000F0FD005D4908704FF480415A4801F047
:1007100058F804464FF47A61FFF788FF012806D1A4
:100720005648007840F004005449087011E04FF436
:100730008041514801F045F804464FF47A61FFF7D3
:1007400075FF022805D14D48007800F0FB004B49A9
:10075000087010214A4801F034F804464FF47A61D9
:10076000FFF764FF012806D14448007840F00800F4
:100770004249087005E04148007800F0F7003F4921
:10078000087020213E4801F01CF804464FF47A61BD
:10079000FFF74CFF012806D13848007840F01000E0
:1007A0003649087005E03548007800F0EF0033491D
:1007B00008704FF48051304801F003F804464FF4BC
:1007C0007A61FFF733FF012806D12C48007840F00A
:1007D00040002A49087011E04FF48051264800F08B
:1007E000F0FF04464FF47A61FFF720FF022805D19D
:1007F0002248007800F0BF00204908701F480078A8
:1008000010BD10B5FFF75AFF10BD08B501214020FB
:1008100001F000FA1020ADF8000048208DF8030028
:100820006946184800F03AFF08BD08B501210C20C0
:1008300001F0F0F94FF4E040ADF8000048208DF8E9
:10084000030069460C4800F029FF3020ADF8000095
:1008500048208DF803006946094800F01FFF08BDD5
:1008600010B5FFF7E2FFFFF7D0FF10BD1600002024
:100870001700002018000020000C01401A00002082
:1008800000080140001801400020BA49088970475B
:1008900030B5014600200123002240F6CD44A1429C
:1008A00000D3214640F26664A1420ED3A1F2526405
:1008B00040F29915B4FBF5F4E2B20AB9002014E055
:1008C000551E03FA05F5E8B20FE040F26664641ABB
:1008D000143440F29915B4FBF5F4E2B20AB90020E1
:1008E00003E0D41C03FA04F4E0B230BD00B5A14922
:1008F0000888FFF7CDFFA04908719E494888FFF797
:10090000C7FF9D49487100BD2DE9F04105460C46E1
:100910000227002699480078204398490870FFF77D
:10092000CDFE022807D195480078204040F008000D
:100930009249087006E091480078204000F0F700E6
:100940008E49087040F6CE40854200D3054640F2FD
:10095000676085420ED3A5F2536040F21111B0FBDF
:10096000F1F0C6B285480078204040F0200083496D
:1009700008700FE040F26760401B143040F2111124
:10098000B0FBF1F0C6B27D480078204040F0100086
:100990007A490870062E1CD866B97848007820403D
:1009A00040F00400754908700846407800F0FE00E9
:1009B000487005E07148407840F001006F49487088
:1009C0006E48407800F0010007FA06F108436B49D1
:1009D00048706A48BDE8F08170B566498888012191
:1009E000FFF792FF044620786349087060784870EA
:1009F0006049C8880221FFF787FF054628785E49CD
:100A000088706878C87070BD10B501215C4800F02E
:100A100050FC00BF022001F04DFC0028FAD002205B
:100A200001F05CFC10BD10B5FFF7EEFFFFF7D4FF3F
:100A3000FFF75CFFFFF728FF10BD00B58BB0012169
:100A4000084601F0DAF84F4801F04CFB4C484C30B6
:100A5000009048480190002002900520039000205B
:100A60000490802005904000069080000790202090
:100A700008900002099000200A906946414801F060
:100A8000D3FB01213F4801F0FAFB0BB000BD00B5DC
:100A900085B00121480201F0BDF84FF4004001F09B
:100AA0001DF8374800F072FB0020009001208DF8FF
:100AB000040000208DF805004FF460200290002013
:100AC000039005208DF8100069462D4800F085FB45
:100AD000072301220A212A4800F017FC07230222DB
:100AE0000B21274800F011FC072303220C21244886
:100AF00000F00BFC072304220D21214800F005FC27
:100B0000072305220E211E4800F0FFFB01211C488F
:100B100000F09AFB01211A4800F08BFB184800F006
:100B2000AAFB00BF164800F0ABFB0028FAD114481E
:100B300000F0B0FB00BF124800F0B1FB0028FAD172
:100B400005B000BD08B50121102001F063F80020B8
:100B50008DF803001F20ADF8000069460A4800F038
:100B60009DFD08BD10B5FFF7EDFFFFF790FFFFF704
:100B700064FF10BD540000201C000020280000204D
:100B800000240140080002400010014010B5574801
:100B9000007857490870012048705648006800786E
:100BA0008870544800684078C8705248006880785F
:100BB000087150480068C0784871FFF77FFD4C49C4
:100BC00088714C4800680079C8714A4800684079CB
:100BD0000872464840784872474800780121B1EBD6
:100BE000600F09D10A21424800F0E5F94348006846
:100BF000C0434349C1F8980110BD3C4800784149C1
:100C00000978884207D1394840783E49C9788842F6
:100C100001D1012070470020FCE73A4840780128C4
:100C200000D170470020FCE770B5374D3748007899
:100C3000012847D1400401F03DFB012842D1FFF7D4
:100C4000ECFF012832D1FFF7D8FF01282ED1304820
:100C5000007804282AD1002404E02A48005D2855A1
:100C6000601CC4B2042CF8DB002407E0285D29498D
:100C7000095D884200D003E0601CC4B2042CF5DB9F
:100C800000BF244800782049097888420ED12148C5
:100C9000C0781D49C978884208D1042C06D117486C
:100CA000001F0068C0431649C1F89401002017498D
:100CB00008704FF4003001F011FB0F48007802205B
:100CC0000D49087070BD10B5FFF7AEFFFFF75EFF6E
:100CD00000F08CF910BD00200B4908704870887036
:100CE000C870704700B5FFF7F6FF00BD0732000877
:100CF0005E000020240000202E00002098012342E6
:100D0000000023422A0000202F0000203B0000208A
:100D10003C0000200932000810B501F016FB10BDA0
:100D200070B505460C4645F2555001F005FB2846C6
:100D300001F005FB204601F005FB01F006FB01F088
:100D400009FB70BD10B541F66A010420FFF7E8FF0A
:100D500010BD00007FB505460C460121C80200F019
:100D600059FFADF80850ADF804400020ADF80A0076
:100D7000ADF806008DF80C0001A9394801F0D0FB50
:100D80000121374802F0EEF901221146344801F002
:100D90003EFF4FF4A06000F08BF919208DF80000A1
:100DA00000208DF8010003208DF8020001208DF84D
:100DB0000300684600F081F90121294801F00CFF89
:100DC0007FBD00202749087048708870C870704740
:100DD00010B5FFF7F6FF41F61F416320FFF7BAFF9A
:100DE0004FF4A06000F064F910BD10B501211C485B
:100DF00002F0BBF9002831D00121194802F0C6F9F0
:100E000019480078401C18490870084600780128E5
:100E100006DB01201349C870887000201249087051
:100E200012480078401C11490870084600780228D2
:100E300005DB01200B49087000200C4908700C48A4
:100E40000078401C0A490870084600780A2805DB2B
:100E500001200449487000200549087010BD0000B9
:100E6000002C014034000020380000203900002010
:100E70003A00002000B58BB00121084600F0BDFE0D
:100E8000734801F02FF973480090734801900020D7
:100E90000290042003900020049080200590002000
:100EA0000690079008904FF44050099000200A9057
:100EB0006946674801F0B8F90121654801F0DFF99A
:100EC0000BB000BD08B50121082000F0A3FE1020E2
:100ED0008DF8030003208DF8020040F60240ADF8C3
:100EE000000069465D4800F0D9FB40F602415B48CE
:100EF00000F083FC08BD10B586B00446012144F221
:100F0000040000F087FE4FF40070ADF814000320D9
:100F10008DF8160018208DF8170005A9504800F02C
:100F2000BDFB4FF48060ADF8140004208DF817006D
:100F300005A94B4800F0B2FB25208DF800000120E8
:100F40008DF8010003208DF8020001208DF80300C8
:100F5000684600F0B2F801940020ADF80800ADF842
:100F60000A00ADF80C00ADF810000C20ADF80E0032
:100F700001A93848001F00F0F4FE012240F224418C
:100F80003448001F00F085FF012240213148001F36
:100F900000F0A4FF01212F48001F00F06EFF06B0F3
:100FA00010BD10B54FF41650FFF7A5FFFFF78AFFED
:100FB000FFF760FF10BD70B504460D460BE000BFA3
:100FC00080212448001F01F033F80028F8D014F8DD
:100FD000010B204908802800A5F10101CDB2EED116
:100FE0002048007801201F49087070BD10B51D48C9
:100FF0000078012807D11C480078012803D101217D
:10100000134801F03CF910BD10B540F224411148DD
:10101000001F01F023F8012819D10E48001F008895
:10102000124908700B48008808700021084801F038
:1010300026F9074801F03AF9C0F104000B4908709D
:10104000042003495839C86501200749087010BDBC
:1010500058000240043801402A000020000C0140E2
:10106000000801402E0000203B0000203C00002032
:101070000948804709480047FEE7FEE7FEE7FEE72C
:10108000FEE7FEE7FEE7FEE7FEE7FEE70448054968
:10109000054A064B704700005B0300083101000859
:1010A000D8000020D8060020D8020020D802002056
:1010B00031490143314A1160704770B50021002366
:1010C0000F22C47804B32D4C246804F4E064C4F502
:1010D000E064210AC1F10403CA40447804FA03F130
:1010E0008478144021430901254C0678A1550478E1
:1010F00004F01F050124AC4005786D11AD0005F129
:10110000E025C5F8004109E0047804F01F0501243A
:10111000AC401C4D0678761145F8264070BD1A4A41
:101120000A400243154B1B1F1A60704739B1134A1E
:10113000121D12680243114B1B1D1A6006E00F4A74
:10114000121D126882430D4B1B1D1A607047042844
:1011500008D14FF0E021096941F004014FF0E0228D
:10116000116107E04FF0E021096921F004014FF01F
:10117000E0221161704700000000FA050CED00E06C
:1011800000E400E080E100E080FFFF1F10B50446AE
:10119000FA48844208D10121401500F055FD002194
:1011A000601500F051FD17E0F548844208D1012197
:1011B000001500F049FD0021201500F045FD0BE071
:1011C000F048844208D10121C80300F03DFD002110
:1011D0004FF4004000F038FD10BD30B5024600204D
:1011E00000235068E84C20400D790C6844EA05243F
:1011F000204350609068E54C2040D1E902542C43D4
:101200004D7944EA450420439060D06A20F4700090
:101210000C7C641EE4B2234340EA0350D06230BD2C
:1012200000210160017141718160C160012101747F
:10123000704721B1826842F00102826003E0826857
:1012400022F001028260704721B1826842F480720C
:10125000826003E0826822F480728260704710B579
:101260000023CBB21AB144681C43446002E04468D6
:101270009C43446010BD816841F008018160704763
:10128000014600208A6802F008020AB1012000E04D
:1012900000207047816841F0040181607047014679
:1012A00000208A6802F004020AB1012000E0002058
:1012B000704721B1826842F4A002826003E0826834
:1012C00022F4A00282607047014600208A6802F47E
:1012D00080020AB1012000E00020704710B50A46E4
:1012E00000210023416821F46041531E41EA43314B
:1012F000416010BD21B1426842F40062426003E0E7
:10130000426822F4006242607047F0B504460D4620
:1013100000200021092D11DDE068A5F10A0606EB89
:101320004607072606FA07F18843A5F10A0606EBE9
:10133000460603FA06F10843E0600CE0206905EB7D
:101340004507072606FA07F1884305EB450603FA29
:1013500006F108432061072A0FDA606B561E06EB80
:1013600086071F2606FA07F18843561E06EB8606F7
:1013700005FA06F10843606322E00D2A0FDA206BBC
:10138000D61F06EB86071F2606FA07F18843D61FED
:1013900006EB860605FA06F10843206310E0E06AD2
:1013A000A2F10D0606EB86071F2606FA07F1884311
:1013B000A2F10D0606EB860605FA06F10843E06287
:1013C000F0BD21B1826842F48012826003E082683D
:1013D00022F48012826070470146C86C80B2704768
:1013E00066484C300068704721B1426842F4806220
:1013F000426003E0426822F480624260704721B19B
:10140000426842F48052426003E0426822F4805213
:10141000426070470A460021816821F4E04111438F
:101420008160704721B1826842F40042826003E02B
:10143000826822F400428260704721B1826842F4DF
:101440000212826003E0826822F402128260704716
:10145000014600208A6802F400120AB1012000E06F
:1014600000207047F0B504461546002000220026F3
:10147000092911DDE068A1F10A0707EB470C0727EE
:1014800007FA0CF29043A1F10A0707EB470703FAAA
:1014900007F21043E0600CE0206901EB410C0727E4
:1014A00007FA0CF2904301EB410703FA07F21043ED
:1014B0002061A06BC0F30156EF1C06F1010CA7EBF5
:1014C0000C0707EB870C1F2707FA0CF29043EF1C61
:1014D00006F1010CA7EB0C0707EB870701FA07F2EF
:1014E0001043A063F0BD10B50A4600210023816BB4
:1014F00021F44011531E41EA0351816310BD08B528
:10150000002300930090009B0B440093009B1A6003
:1015100008BD08B5024600200090009201F12800A5
:10152000009B184400900098006880B208BD0A46ED
:1015300000214168164B19401143416070474162D8
:10154000826270470A460021416821F01F01114361
:101550004160704740B109490831096841F4000110
:10156000064A0832116007E004490831096821F48D
:101570000001024A08321160704700000024014057
:1015800000280140003C0140FFFEF0FFFDF7F1FFA5
:10159000FFFD3FFF0246002013680B400BB1012006
:1015A00000E000207047CA430260704770B50246F1
:1015B0000020002300240B125568CEB205EA060471
:1015C00015681D4015B10CB1012000E0002070BD70
:1015D00000220A12D34303607047000010B504468E
:1015E000CC48844208D10121042000F02DFB0021C9
:1015F000042000F029FB46E0C748844208D10121BD
:10160000082000F021FB0021082000F01DFB3AE03B
:10161000C248844208D10121102000F015FB0021AE
:10162000102000F011FB2EE0BD48844208D10121BA
:10163000202000F009FB0021202000F005FB22E023
:10164000B848844208D10121402000F0FDFA002171
:10165000402000F0F9FA16E0B348844208D1012195
:10166000802000F0F1FA0021802000F0EDFA0AE07D
:10167000AE48844207D10121801500F0E5FA00212F
:10168000A01500F0E1FA10BD10B50121084600F0E8
:10169000DBFA0021012000F0D7FA10BD2DE9F0415E
:1016A000024600250026002000230024002791F890
:1016B00003C00CF00F0591F803C00CF0100CBCF146
:1016C000000F03D091F802C04CEA050591F800C064
:1016D000BCF1000F31D0146800202BE04FF0010C5A
:1016E0000CFA00F3B1F800C00CEA03069E4220D1C8
:1016F00083004FF00F0C0CFA03F7BC4305FA03FC10
:101700004CEA040491F803C0BCF1280F06D14FF055
:10171000010C0CFA00FCC2F814C00AE091F803C0F6
:10172000BCF1480F05D14FF0010C0CFA00FCC2F8D7
:1017300010C0401C0828D1D31460B1F800C0BCF11F
:10174000FF0F34DD546800202EE000F1080C4FF04C
:10175000010808FA0CF3B1F800C00CEA03069E4237
:1017600021D183004FF00F0C0CFA03F7BC4305FAAC
:1017700003FC4CEA040491F803C0BCF1280F05D126
:1017800000F1080C08FA0CF8C2F8148091F803C0B4
:10179000BCF1480F07D100F1080C4FF0010808FA1E
:1017A0000CF8C2F81080401C0828CED35460BDE865
:1017B000F0814FF6FF710180022181700421C17018
:1017C00070470246002093680B400BB1012000E0F7
:1017D000002070470146886880B2704702460020AA
:1017E000D3680B400BB1012000E000207047014698
:1017F000C86880B2704701617047416170470AB1A3
:10180000016100E041617047C16070474FF4803270
:101810000A438261816182618269826970470246FE
:101820000020434B18684FF68073184040EA0210BE
:1018300008433F4B186070473E49C8617047F0B598
:101840000A46002300240021002500F00046B6F1DE
:10185000004F02D1364EF16901E0354E7168C0F398
:10186000034583B200F44016B6F5401F08D121F0BD
:1018700070612F4E766826F070662D4F7E6012E004
:1018800000F48016B6F5801F06D1032606FA05F48B
:10189000A14341F0706106E0460D360103FA06F6F9
:1018A000B14341F0706122B1460D360103FA06F6EC
:1018B000314300F00046B6F1004F02D11C4EF161F9
:1018C00001E01B4E7160F0BD30B500228B071C0F8C
:1018D0000F2303FA04F2164B08338C1053F824300C
:1018E0009343134C08348D1044F8253023468C1054
:1018F00053F824308C07240F00FA04F423430C4CD3
:1019000008348D1044F8253030BD0A49DC310860B8
:101910007047000000080140000C01400010014029
:101920000014014000180140001C0140002001404B
:101930000000014000002042DF48006840F0010044
:10194000DD49086008464068DC490840DA494860DB
:1019500008460068DA490840D74908600846006828
:1019600020F4802008600846406820F4FE004860AB
:101970004FF41F0088607047CF49096821F4803117
:10198000CD4A11601146096821F480211160B0F53B
:10199000803F03D0B0F5802F0ED106E0C64909681C
:1019A00041F48031C44A116007E0C349096841F439
:1019B000A021C14A116000E000BF00BF704710B510
:1019C00001460022002300204A11012A02D1BA4C0C
:1019D000236806E0022A02D1B74C236A01E0B64C24
:1019E000636A01F01F02012494401C400CB10120E5
:1019F00000E0002010BD38B5002000900024002534
:101A000000BF3120FFF7DBFF05460098401C009027
:101A10000098B0F5A06F01D0002DF2D03120FFF773
:101A2000CEFF08B1012400E00024204638BD014665
:101A30000020A14A106820F0F80040EAC1001060C0
:101A40007047A04908607047024600209A4B5868CA
:101A500020F47C1042EA01031843974B586070470A
:101A600098490866704701460020934A506820F064
:101A700003000843506070478F48406800F00C0036
:101A80007047014600208C4A506820F0F00008435F
:101A90005060704701460020874A506820F4E0609B
:101AA00008435060704701460020834A506820F484
:101AB000605040EAC1005060704729B17E4A527AB6
:101AC00002437D4B5A7204E07B4A527A82437A4B3E
:101AD0005A7270477B49D831086070470146002030
:101AE000754A506820F44040084350607047002118
:101AF000714A20321170704A82F82010012802D0F9
:101B000004280AD104E001216B4A2032117005E05B
:101B10000521694A2032117000E000BF00BF704704
:101B20006949086070476449096A0143624A116261
:101B30007047654944390860704730B5002100227C
:101B4000002400235C4D6D6805F00C0121B10429CF
:101B500005D0082923D105E05C4D056022E05B4DEE
:101B600005601FE0544D6D6805F47012524D6D68AC
:101B700005F48034022505EB92421CB9544D5543BF
:101B800005600BE04C4D6D6805F400351DB1504DFE
:101B90005543056002E04D4D5543056002E04B4D55
:101BA000056000BF00BF444D6D6805F0F0010909F4
:101BB000484D6B5C0568DD4045603F4D6D6805F440
:101BC000E061090A434D6B5C4568DD4085603A4D34
:101BD0006D6805F46051C90A3E4D6B5C4568DD4097
:101BE000C560354D6D6805F44041890B3A4D6B5C1D
:101BF000C568B5FBF3F5056130BD29B12E4A5269C0
:101C000002432D4B5A6104E02B4A526982432A4B0E
:101C10005A61704729B1284A92690243264B9A615A
:101C200004E0254A92698243234B9A61704729B1A7
:101C3000214AD2690243204BDA6104E01E4AD2698C
:101C400082431D4BDA61704729B11B4AD2680243B7
:101C5000194BDA6004E0184AD2688243164BDA6006
:101C6000704729B1144A12690243134B1A6104E008
:101C7000114A12698243104B1A6170471249403968
:101C8000086070470F49C86470470B49C8717047B6
:101C90000948406A40F08070074948627047014631
:101CA0000020054A92680A400AB1012000E00020A5
:101CB0007047014988727047001002400000FFF829
:101CC000FFFFF6FE000042428004424200127A000A
:101CD00000093D003D0000204D00002010B50446E5
:101CE000FB48844209D101218803FFF7ADFF0021A1
:101CF0004FF48040FFF7A8FF32E0F648844209D154
:101D000001214804FFF7ADFF00214FF40030FFF739
:101D1000A8FF25E0F048844209D101218804FFF79B
:101D2000A0FF00214FF48020FFF79BFF18E0EB4855
:101D3000844209D10121C804FFF793FF00214FF429
:101D40000020FFF78EFF0BE0E548844208D1012117
:101D50000805FFF786FF00214FF48010FFF781FF91
:101D600010BD2DE9F04786B005460E460024A24678
:101D700000BFA1460027B08900B100BF2F462C8AC2
:101D80004CF6FF700440F08804432C82AC894EF678
:101D9000F3100440B0883189084371890843044333
:101DA000AC81AC8A4FF6FF400440B0890443AC825A
:101DB00001A8FFF7C2FEC648874202D1DDF810A095
:101DC00001E0DDF80CA0A88900F4004040B10AEB66
:101DD000CA0000EB0A1031684900B0FBF1F807E0D7
:101DE0000AEBCA0000EB0A1031688900B0FBF1F879
:101DF0006420B8FBF0F004012009642101FB108984
:101E0000A88900F4004040B1322000EBC900B0FBCB
:101E1000F1F000F00700044308E0322000EB091065
:101E20006421B0FBF1F000F00F0004432C8106B0F8
:101E3000BDE8F0874FF41651016000218180C18018
:101E400001810C21418100218181704710B502463A
:101E50000020108A4FF2FF0318400B884C88234360
:101E60008C882343CC8823431843108210BD002163
:101E7000018041808180C180704721B1828942F414
:101E80000052828104E082894DF6FF731A408281FC
:101E90007047F0B50346002400260025002040F6D8
:101EA0006A17B94200D100BF1846C1F3421401F0CD
:101EB0001F06012707FA06F5012C01D10C3004E0BA
:101EC000022C01D1103000E014301AB107682F4302
:101ED000076002E00768AF430760F0BD1AB1838A6C
:101EE0000B43838202E0838A8B4383827047028A9A
:101EF0004FF6F0731A400282028A0A430282704748
:101F000082894FF2FF731A40828182890A4382815B
:101F1000704721B1828942F00202828104E0828905
:101F20004FF6FD731A4082817047028A4FF6DF73C5
:101F30001A400282028A0A430282704721B1028A51
:101F400042F48042028204E0028A4BF6FF731A4098
:101F500002827047C1F30802828070470146888878
:101F6000C0F308007047818941F001018181704709
:101F7000028BD2B20283028B42EA012202837047B3
:101F8000028B02F47F420283028B0A430283704772
:101F900021B1828A42F02002828204E0828A4FF6D6
:101FA000DF731A408282704721B1828A42F01002A8
:101FB000828204E0828A4FF6EF731A408282704771
:101FC00021B1828A42F00802828204E0828A4FF6BE
:101FD000F7731A408282704721B1828942F400422D
:101FE000828103E08289C2F30E028281704721B1AF
:101FF000828A42F40062828204E0828A4FF2FF7396
:102000001A4082827047828A4FF6FB731A4082829E
:10201000828A0A438282704721B1828A42F0020298
:10202000828204E0828A4FF6FD731A4082827047F2
:1020300002460020B1F5007F00D100BF13880B409D
:102040000BB1012000E00020704701F40072B2F5EE
:10205000007F00D100BFCA430280704770B50246BE
:10206000002400230025002040F66A16B14200D16A
:1020700000BFC1F3421501F01F03012606FA03F366
:10208000012D02D19689334006E0022D02D1168A35
:10209000334001E0968A33400C12012606FA04F41C
:1020A0001688344013B10CB1012000E0002070BD4F
:1020B00010B50022002340F66A14A14200D100BFEF
:1020C0000A1201249440A3B2DC43048010BD000036
:1020D000003801400044004000480040004C0040EF
:1020E0000050004001684FF6FE721140016000216F
:1020F000016041608160C1608D49884208D18C498E
:102100000839496841F00F01894A083A51608AE06C
:1021100087491431884208D185490839496841F016
:10212000F001834A083A51607DE0814928318842B4
:1021300008D17F490839496841F470617C4A083AFE
:10214000516070E07A493C31884208D178490839B9
:10215000496841F47041764A083A516063E0744935
:102160005031884208D172490839496841F47021D8
:102170006F4A083A516056E06D496431884208D18F
:102180006B490839496841F47001694A083A51605D
:1021900049E067497831884208D16549083949687A
:1021A00041F07061624A083A51603CE061498842FE
:1021B00006D1011F096841F00F01021F116032E0D2
:1021C0005C491431884208D15A49091F096841F015
:1021D000F001584A121F116025E056492831884203
:1021E00008D15449091F096841F47061514A121F0E
:1021F000116018E04F493C31884208D14D49091F10
:10220000096841F470414B4A121F11600BE04949C3
:102210005031884207D14749091F096841F47021AC
:10222000444A121F1160704710B50022026847F639
:10223000F0739A430C6A8B6823430C6923434C69FF
:1022400023438C692343CC6923434C6A23438C6A20
:1022500023431A430260CB6843600B6883604B687A
:10226000C36010BD0021016041608160C1600161F7
:1022700041618161C161016241628162704721B146
:10228000026842F00102026004E002684FF6FE7349
:102290001A40026070471AB103680B43036002E002
:1022A00003688B430360704741607047014648688C
:1022B00080B2704701460020002201F080531BB11C
:1022C0001C4B083B1A6802E0194B083B1A6802EAEB
:1022D00001030BB1012000E00020704700F08051A5
:1022E00019B11449091F086002E011490839486012
:1022F000704701460020002201F080531BB10D4BB6
:10230000083B1A6802E00A4B083B1A6802EA01031C
:102310000BB1012000E00020704700F0805119B19E
:102320000449091F086002E0014908394860704704
:1023300008000240080402400E49086070470D4939
:10234000486070470B49886070474AF6AA200949DF
:10235000086070474CF6CC4006490860704701465B
:102360000020044AD2680A400AB1012000E000209F
:10237000704700000030004010B50446FE4884421B
:1023800008D10121C014FFF75FFC0021E014FFF722
:102390005BFCC4E0B4F1804F08D101210846FFF78F
:1023A00060FC00210120FFF75CFCB8E0F3488442A8
:1023B00008D101210220FFF754FC00210220FFF781
:1023C00050FCACE0EE48844208D101210420FFF724
:1023D00048FC00210420FFF744FCA0E0E9488442C7
:1023E00008D101210820FFF73CFC00210820FFF75D
:1023F00038FC94E0E448844208D101211020FFF722
:1024000030FC00211020FFF72CFC88E0DF488442DC
:1024100008D101212020FFF724FC00212020FFF714
:1024200020FC7CE0DA48844208D101214014FFF707
:102430000BFC00216014FFF707FC70E0D5488442D4
:1024400009D10121C804FFF7FFFB00214FF4002050
:10245000FFF7FAFB63E0D048844209D10121080567
:10246000FFF7F2FB00214FF48010FFF7EDFB56E081
:10247000CA48844209D101214805FFF7E5FB002144
:102480004FF40010FFF7E0FB49E0C548844208D153
:1024900001214020FFF7E5FB00214020FFF7E1FB91
:1024A0003DE0C048844208D101218020FFF7D9FBDC
:1024B00000218020FFF7D5FB31E0BB48844208D1E2
:1024C00001218015FFF7CDFB0021A015FFF7C9FB07
:1024D00025E0B648844209D101210804FFF7B4FB86
:1024E00000214FF48030FFF7AFFB18E0B048844282
:1024F00009D101214804FFF7A7FB00214FF4003068
:10250000FFF7A2FB0BE0AB48844208D1012188040D
:10251000FFF79AFB00214FF48020FFF795FB10BDD9
:1025200000220288944B98420ED0994B98420BD0CF
:10253000B0F1804F08D0914B984205D0904B984213
:1025400002D0904B984204D14FF68F731A404B88BB
:102550001A438D4B984207D08C4B984204D04FF6CB
:10256000FF431A40CB881A4302808B8883850B88EF
:102570000385814B98420BD0854B984208D08B4BFA
:10258000984205D08A4B984202D08A4B984201D19A
:102590000B7A038601238382704770B500240022E2
:1025A0000023058C4FF6FE7635400584028C838827
:1025B000048B4FF68F752C40B51E2C400D882C4394
:1025C000751E2A400D892A434D882A436A4DA84228
:1025D0000BD06F4DA84208D0744DA84205D0744D61
:1025E000A84202D0734DA84213D14FF6F7752A4086
:1025F0004D892A434FF6FB752A408D882A434FF6B2
:10260000FF652B404FF6FF552B408D892B43CD891D
:102610002B4383800483CD888586028470BD70B58A
:10262000002400220023058C4FF6EF763540058408
:10263000028C8388048B48F6FF752C404FF6FF45CB
:102640002C400D884FF6FF7606EA05252C434FF601
:10265000DF752A400D8906EA05152A434D8806EAEA
:1026600005152A43444DA84202D0494DA8421DD128
:102670004FF67F752A404D894FF6FF7606EA05151D
:102680002A434FF6BF752A408D8806EA05152A436E
:102690004FF6FF352B404FF2FF752B408D8906EA30
:1026A00085052B43CD8906EA85052B43838004836A
:1026B000CD880587028470BD70B5002400220023F8
:1026C000058C4FF6FF6635400584028C8388848B29
:1026D0004FF68F752C404FF6FC752C400D882C431F
:1026E0004FF6FF552A400D894FF6FF7606EA05257D
:1026F0002A434D8806EA05252A431F4DA84202D0E9
:10270000234DA8421DD14FF2FF752A404D894FF647
:10271000FF7606EA05252A434FF6FF352A408D88C5
:1027200006EA05252A434EF6FF752B404DF6FF7548
:102730002B408D8906EA05152B43CD8906EA051540
:102740002B4383808483CD888587028470BD70B5D8
:10275000002200230024058C4EF6FF7635400584C8
:10276000038C8488828B48F6FF752A404FF6FF451C
:102770002A400D8820E00000002C014000040040A9
:1027800000080040000C0040001000400014004011
:1027900000340140004C0140005001400054014011
:1027A00000180040001C0040002000400040014094
:1027B00000440140004801404FF6FF7606EA052537
:1027C0002A434DF6FF752B400D8906EA05352B434C
:1027D0004D8806EA05352B43FA4DA84202D0FA4D42
:1027E000A84208D14BF6FF752C408D894FF6FF7635
:1027F00006EA85152C4384808283CD88A0F840505A
:10280000038470BD828B4FF2FF331A408283828B28
:102810004FF6FF7303EA01231A4382837047F0B532
:102820000C461546002200210026078C4EF6FF7C40
:1028300007EA0C070784828B018C4FF6FF7707EAC3
:10284000043640F6FF473A404FF6FF7707EA052780
:102850003A434FF6FF7707EA03373A43D94FB84276
:102860000ED0D94FB8420BD0B0F1804F08D0D74F1F
:10287000B84205D0D64FB84202D0D64FB84206D1A2
:102880004DF6FF77394046F48057394305E047F667
:10289000FF57394044F48057394382830184F0BDA7
:1028A000828B4FF6F3731A408283828B0A438283B2
:1028B0007047F0B50C461546002200210026078C13
:1028C0004FF6FF6C07EA0C070784828B018C4FF6EA
:1028D000FF7707EA04264FF60C773A404FF6FF776A
:1028E00007EA03172F433A43B64FB8420ED0B64F0C
:1028F000B8420BD0B0F1804F08D0B44FB84205D0E9
:10290000B34FB84202D0B34FB84206D14FF6FF578B
:10291000394046F48077394305E04FF2FF5739409C
:1029200044F48077394382830184F0BD028B4FF2F7
:10293000FF331A400283028B4FF6FF7303EA012331
:102940001A4302837047F0B50C4615460022002159
:102950000026078C4FF6EF7C07EA0C070784028BF2
:10296000018C4FF6FF7707EA041640F6FF473A401E
:102970004FF6FF7707EA03373A434FF6FF7707EA48
:1029800005273A438F4FB8420ED08F4FB8420BD035
:10299000B0F1804F08D08D4FB84205D08C4FB8426F
:1029A00002D08C4FB84206D14FF6DF77394046F05F
:1029B0001007394305E04FF65F77394044F01007C0
:1029C000394302830184F0BD028B4FF6F3731A4042
:1029D0000283028B0A4302837047F0B50C4615460A
:1029E00000220021068C4FF6FE773E400684028BC3
:1029F000018C4FF60C7632407E1C06EA03162E43FD
:102A00003243704EB0420ED06F4EB0420BD0B0F198
:102A1000804F08D06D4EB04205D06D4EB04202D00E
:102A20006C4EB04206D14FF6FD76314044F00106BF
:102A3000314305E04FF6F576314044F0010631436D
:102A400002830184F0BD70B505460C465D488542A1
:102A50000ED05D4885420BD0B5F1804F08D05B4861
:102A6000854205D05A48854202D05A48854200D155
:102A700000E000BF208850B92389A28861882846D9
:102A8000FFF7ABFFE1882846FFF79EFF25E020888F
:102A900004280AD12389A28861882846FFF753FFBA
:102AA000E1882846FFF742FF17E0208808280AD16E
:102AB0002389A28861882846FFF7FBFEE188284623
:102AC000FFF7EEFE09E02389A28861882846FFF718
:102AD000A6FEE1882846FFF795FE70BD2DE9F0417E
:102AE00005460C4600260127608808B9022600E04A
:102AF0000026A088012801D1022700E001272088B4
:102B0000A0B92389A28861882846FFF766FFE1887B
:102B10002846FFF759FF23893A4631462846FFF7F2
:102B200012FFE1882846FFF701FF13E02389A288FE
:102B300061882846FFF707FFE1882846FFF7F6FE81
:102B400023893A4631462846FFF747FFE188284661
:102B5000FFF73AFFBDE8F0810A884B881A438B885B
:102B60001A43CB881A430B891A434B891A438B8922
:102B70001A43A0F8442070474FF6FF71818000216E
:102B80000180C18041800172704700210180418035
:102B90008180C180018141818181C1817047002193
:102BA00001804180012181800021C1800181704725
:102BB0000021018041808180C1800181418181812A
:102BC00070470000002C0140003401400004004028
:102BD00000080040000C004021B1028842F00102D0
:102BE000028004E002884FF6FE731A4002807047AC
:102BF00031B1B0F8442042F40042A0F8442005E08E
:102C0000B0F84420C2F30E02A0F8442070471AB175
:102C100083890B43838102E083898B4383817047DF
:102C20008182704741EA0203A0F8483070471AB128
:102C300083890B43838102E083898B4383817047BF
:102C400001894FF6F8721140018170470A46002150
:102C500001894FF68F73194011430181704730B5D8
:102C600004460D4629462046FFF7F0FF208940F034
:102C70000700208130BD2DE9F04104460D4616467F
:102C80001F46602D06D13B46012231462046FFF704
:102C90005AFE05E03B46012231462046FFF79DFEE5
:102CA00029462046FFF7D2FF208940F00700208107
:102CB000BDE8F08130B50C4600210189C9B24FF65C
:102CC000FF7505EA0325154325432943018130BDDE
:102CD0002DE9F04105460E46174698460024434626
:102CE0003A4631462846FFF7E5FF2C894FF6F87043
:102CF000044044F007044FF68F70044044F0700421
:102D00002C81BDE8F081F0B504460D4616461F46FD
:102D10003B46324629462046FFF7CCFF208940F447
:102D200080402081F0BD0185828270470A460021E3
:102D300001884FF68F731940114301807047F0B539
:102D40000C4615461E460021002200230189028BF5
:102D5000038C4FF6F877394021434FF6FC473A4051
:102D600040F201173A434FF6DD773B404FF6FF77CD
:102D700007EA06172F433B43018102830384F0BD1A
:102D80000A460021018B4FF68F73194011430183CE
:102D900070470A460021018B48F6FF7319404FF631
:102DA000FF7303EA02231943018370470A46002197
:102DB000818B4FF68F7319401143818370470A4608
:102DC0000021818B48F6FF7319404FF6FF7303EA29
:102DD000022319438183704721B1028842F08002A7
:102DE000028004E002884FF67F731A400280704729
:102DF00021B1828842F00402828004E082884FF68A
:102E0000FB731A408280704721B1828842F0080229
:102E1000828004E082884FF6F7731A408280704700
:102E200021B1828842F00102828004E082884FF65C
:102E3000FE731A40828070470A460021018B4FF6CC
:102E4000F77319401143018370470A460021018B33
:102E50004FF2FF7319404FF6FF7303EA0223194341
:102E6000018370470A460021818B4FF6F7731940A2
:102E70001143818370470A460021818B4FF2FF7313
:102E800019404FF6FF7303EA022319438183704709
:102E90000A460021018B4FF6FB7319401143018351
:102EA00070470A460021018B4FF6FF3319404FF659
:102EB000FF7303EA02231943018370470A46002186
:102EC000818B4FF6FB7319401143818370470A468B
:102ED0000021818B4FF6FF3319404FF6FF7303EA51
:102EE00002231943818370470A460021018B4FF664
:102EF0007F7319401143018370470A460021018BFB
:102F0000C1F30E014FF6FF7303EA02231943018355
:102F100070470A460021818B4FF67F731940114399
:102F2000818370470A460021818BC1F30E014FF661
:102F3000FF7303EA02231943818370470A46002185
:102F4000018C4FF6FD7319401143018470470A4606
:102F50000021018C4FF6F77319401143018470472B
:102F60000A460021018C4FF6DF7319404FF6FF73BC
:102F700003EA02131943018470470A460021018CB9
:102F80004FF67F7319404FF6FF7303EA021319439C
:102F9000018470470A460021018C4FF6FF53194007
:102FA0004FF6FF7303EA02231943018470470A4670
:102FB0000021018C4FF2FF7319404FF6FF7303EAB3
:102FC00002231943018470470A460021018C4DF603
:102FD000FF7319404FF6FF7303EA0233194301846C
:102FE000704730B5002301248C40A3B2048C9C436D
:102FF0000484048C02FA01F5ADB22C43048430BD84
:1030000030B5002304248C40A3B2048C9C43048478
:10301000048C02FA01F5ADB22C43048430BD70B5C6
:103020000346002000241846183001258D40ACB21C
:103030001D8CA5431D8409B1082909D100EB61004D
:10304000056825F0700505600568154305600EE00C
:103050000D1FC5F34E052844056825F4E0450560BD
:1030600005684FF6FF7606EA02263543056070BD17
:1030700021B1028842F00202028004E002884FF689
:10308000FD731A400280704721B1028842F00402A9
:10309000028004E002884FF6FB731A4002807047FA
:1030A00021B1828842F08002828004E082884FF65B
:1030B0007F731A408280704702884FF6F7731A4078
:1030C000028002880A430280704782884FF68F731D
:1030D0001A40828082880A438280704702894FF6B4
:1030E000F8731A40028102890A43028170470289FB
:1030F0004FF67F731A40028102890A4302817047AA
:103100008184704781857047818670470187704749
:1031100081877047A0F84010704702884FF6FF4340
:103120001A40028002880A43028070470146888E56
:1031300070470146088F70470146888F70470146E7
:10314000B1F8400070470146888C70470146088DF1
:10315000704702460020138A0B400BB1012000E0AB
:1031600000207047CA430282704730B502460020F3
:1031700000230024158A05EA0103958905EA010464
:1031800013B10CB1012000E0002030BDCA4302821F
:103190007047704770477047754600F029F8AE4693
:1031A00005006946534620F00700854618B020B553
:1031B000FDF76CFFBDE820404FF000064FF0000720
:1031C0004FF000084FF0000B21F00701AC46ACE8CF
:1031D000C009ACE8C009ACE8C009ACE8C0098D463C
:1031E00070470446AFF300802046FCF7E8FF00007C
:1031F000004870477400002001491820ABBEFEE76C
:1032000026000200704701484548011045000000B3
:103210003032000800000020540000006C0100085B
:103220008432000854000020840600008801000851
:1032300000A24A0400000000000000000102030494
:103240000607080900000000000000000000000060
:10325000000000001C000020000000000000010031
:10326000000000010000000000000000000000005D
:103270000001020304010203040607080902040610
:043280000800000042
:0400000508000131BD
:00000001FF
